:100000000EC015C014C013C012C011C010C00FC064
:100010000EC00DC00CC00BC00AC009C008C011241E
:100020001FBECFE5D2E0DEBFCDBF02D042C0E8CFD9
:1000300085B78F7B85BF18BA80E187BB36B3357033
:1000400085E096B3282F29233217D9F38530C9F4D8
:10005000292F2370223041F488B3886088BB88E15F
:1000600087BB18BA81E022C0292F2C702830F1F408
:1000700088B3826088BB82E187BB80E188BB84E073
:1000800015C0813049F4292F2370233029F480E1F1
:1000900087BB18BA85E00AC0843041F4292F2C7040
:1000A0002C3021F480E187BB88BB85E0382F3923D1
:0600B000C8CFF894FFCF59
:00000001FF
